:020000040000FA
:10000000442009200328A30911203E201E203E2061
:1000100003281930A0002330A1004630A200A3011C
:100020000800200822020318172050200800A00A08
:10003000552020082202031D17280800A0034B208A
:100040002318292021082002031D1E2803115A20ED
:1000500008000430A0020800FA30A4000000A40B3D
:100060002E280800FA30A5002C20A50B3428080003
:100070000430A6003220A60B3A2808000530A7005D
:100080003820A70B402808008316F0308600831222
:100090000030860008008312061432200610080083
:1000A000831286143220861008008312061532202F
:0E00B000061108008312861532208611080002
:0200BE0000340C
:0200C00000340A
:02400E00103F61
:00000001FF
