:020000040000FA
:100000000030A0002330A1004630A200152034208B
:100010002E202E202E202E202E201C203B202E2075
:100020002E202E202E202E200028A00A200822027A
:10003000031D152803110800A00321082002031D39
:100040001C280800FA30A3000000A30B2428080095
:10005000FA30A4002220A40B2A2808000430A500AE
:100060002820A50B302808008316861083128614DA
:100070002E208610080083160611831206152E20E6
:04008000061108005D
:040084000034003410
:02400E00013F70
:00000001FF
