:020000040000FA
:10000000482009200328A309112042201E20422055
:1000100003281930A0002330A1004630A200A3011C
:100020000800200822020318172052200800A00A06
:10003000572020082202031D17280800210820024B
:10004000031824205C200800A0034D2023182D2035
:1000500021082002031D242808000430A002080003
:10006000FA30A4000000A40B32280800FA30A500E2
:100070003020A50B382808000430A6003620A60B37
:100080003E2808000530A7003C20A70B44280800A4
:100090008316F0308600831208008312061436207F
:1000A000061008008312861436208610080083127A
:1000B0000615362006110800831286153620861193
:0200C000080036
:0400C20000340034D2
:02400E00103F61
:00000001FF
