:020000040000FA
:1000000040200820032810203A201A203A200328F4
:100010001930A0002330A1004630A200A30108003F
:10002000A00A512020082202031D031810280311E2
:100030004C200800A0034720231825202108200277
:10004000031D1A280311562008000430A0020800DE
:10005000FA30A4000000A40B2A280800FA30A500FA
:100060002820A50B302808000430A6002E20A60B5F
:10007000362808000530A7003420A70B3C280800CC
:100080008316F03086008312003086000800831249
:1000900006142E2006100800831286142E208610C7
:1000A0000800831206152E200611080083128615FB
:0600B0002E20861108005D
:0400B60000340034DE
:02400E00103F61
:00000001FF
