:020000040000FA
:100000003E200820032810203820192038200328FB
:100010001930A0002330A1004630A200A30108003F
:10002000A00A462020082202031D102803114B209D
:100030000800A0032318232021082002031D1928EB
:100040000311502008000530A0020800FA30A40077
:100050000000A40B28280800FA30A5002620A50BD4
:100060002E2808000430A6002C20A60B34280800F7
:100070000530A7003220A70B3A2808008316F83075
:100080008600831200308600831208008312061453
:100090002C2006100800831286142C2086100800DD
:0A00A000831206152C20061108003B
:0400AA0000340034EA
:02400E00013F70
:00000001FF
