:020000040000FA
:100000003F200820032810203920192039200328F8
:100010001930A0002330A1004630A200A30108003F
:10002000A00A502020082202031D102803114B2093
:100030000800A00323182420462021082002031DC5
:1000400019280311552008000430A0020800FA30D6
:10005000A4000000A40B29280800FA30A5002720DE
:10006000A50B2F2808000430A6002D20A60B35284C
:1000700008000530A7003320A70B3B280800831693
:10008000F0308600831200308600080083120614C8
:100090002D2006100800831286142D2086100800DB
:1000A000831206152D2006110800831286152D20B7
:0400B00086110800AD
:0400B40000340034E0
:02400E00103F61
:00000001FF
